:020000040800F2
:10000000C80A0020615A0008B12800086B5A00088D
:10001000B3280008B7280008BB280008000000002B
:10002000000000000000000000000000BF280008E1
:10003000C128000800000000775A0008C328000803
:100040007B5A00087B5A00087B5A00087B5A00083C
:100050007B5A00087B5A00087B5A00087B5A00082C
:100060007B5A00087B5A00087B5A00087B5A00081C
:100070007B5A00087B5A00087B5A00087B5A00080C
:100080007B5A00087B5A00087B5A00087B5A0008FC
:100090007B5A00087B5A00087B5A00087B5A0008EC
:1000A0007B5A00087B5A00087B5A00087B5A0008DC
:1000B0007B5A00087B5A00087B5A00087B5A0008CC
:1000C0007B5A00087B5A00087B5A00087B5A0008BC
:1000D0007B5A0008CB2800087B5A00087B5A00088E
:1000E0007B5A00087B5A00087B5A000800F002F88F
:1000F00000F03CF80AA090E8000C82448344AAF186
:100100000107DA4501D100F031F8AFF2090EBAE883
:100110000F0013F0010F18BFFB1A43F0010318473B
:100120007C7900009C790000103A24BF78C878C11F
:10013000FAD8520724BF30C830C144BF04680C60ED
:10014000704700000023002400250026103A28BF35
:1001500078C1FBD8520728BF30C148BF0B60704739
:100160001FB505F027FE1FBD10B510BD05F048FEF8
:100170001146FFF7F5FF00F009F805F066FE03B43D
:10018000FFF7F2FF03BC05F067FE000002F039FB49
:10019000044801F088FE044800F0D3F901E000F0C3
:1001A0005DF8FCE72400002098000020704710B59F
:1001B0000446207AD0B112480078401C10490870DB
:1001C00008460078012804D0192806D032280CD11E
:1001D00007E00C4803F0CCFC07E00A4803F0D0FC31
:1001E00003E000200649087000BF02E0054803F064
:1001F000BFFC10BD00B50448FFF7D8FF00BD0000EC
:1002000000000020540000208000002010B531487C
:1002100000F082FC10BD10B52F4800F09BF92E486D
:1002200000F077FA2D4801F03EFC10BD10B52B48C8
:1002300001F0B1FB10BD10B5264801F019F910BD51
:1002400010B5274801F0EEF9254801F069FA214878
:1002500001F06DF92348FFF7AAFF10BD10B5224841
:100260000088012804DBFFF7D1FF00201E49088029
:100270001D484088022804DBFFF7CDFF00201A4903
:10028000488019488088052804DBFFF7CFFF00204D
:10029000154988801448C0880A2804DBFFF7CBFF83
:1002A00000201149C88010480089142804DBFFF79A
:1002B000C7FF00200C49088110BD00210181C180C9
:1002C000818041800180704700B50748FFF7F5FF46
:1002D00000BD0000300100209800002084010020B3
:1002E0006A010020800000208C0000202DE9F047EA
:1002F00081460C4615462946634807F0FDF88046BE
:1003000041464FF07E5006F0B9FF0746214606F001
:1003100041FF06463146204606F0B0FFBDE8F087B3
:100320005A4A0A605A4A4A605A4A8A6070472DE916
:10033000F04107460D4614462146284606F02AFF9E
:1003400006463146204606F099FFBDE8F0810FB41D
:10035000F0B58DB005460F461A9C224617A904A891
:1003600006F05DFB04A807C807AB07C321464FF0A2
:100370007E5007F081FA0646324614A901A806F01D
:100380004EFB01A807C80AAB07C307AA0AA928465B
:1003900006F061FB0DB0F0BC5DF814FB0FB470B556
:1003A0009EB005460E4614460FA8002181604160AC
:1003B000016000BF04F10C010CA8A26806F02FFB3D
:1003C0000CA807C812AB07C304F1180109A862689A
:1003D00006F025FB09A807C815AB07C325A906A881
:1003E000226806F01CFB06A807C818AB07C315AAAD
:1003F00018A903A806F02FFB03A807C81BAB07C367
:1004000012AA1BA9684606F0EEFA9DE807000FAB9A
:1004100007C3D4E90712A069C4E90412E0600FA879
:1004200007C8C4E90712A0610FA807C885E807003C
:100430001EB070BC5DF814FB0FB4F0B58DB005466E
:100440000F461A9C21464FF07E5007F015FA0646DB
:10045000324617A904A806F0E2FA04A807C807ABB9
:1004600007C3224614A901A806F0D9FA01A807C8B3
:100470000AAB07C307AA0AA9284606F0ECFA0DB092
:10048000F0BC5DF814FB0000DB0FC9404FE2403EBA
:100490006808833FA725593E70B50446204600BF33
:1004A0000446204606F0F0F9044604F10C0006F07C
:1004B000EBF9A0F10C0404F1180006F0E5F9A0F145
:1004C000180404F1240006F0DFF9A0F1240404F17B
:1004D000300504F13C0006F0D7F9A0F10C050C3012
:1004E00006F0D2F9A0F1480404F158004FF07E5113
:1004F00001600021C1608160416000BFA0F158042B
:10050000204670BD10B5044662224FF47A71C74888
:1005100002F010FC10BD10B50446C54AC54920467E
:10052000FFF7E4FEC449086004F130012046FFF7FC
:10053000F7FEC24ABF492046FFF7F9FEBE494860B0
:1005400010BD10B504462046FFF7E5FF2046FFF733
:10055000D9FF10BD3EB50446B44802F0BEFCB34816
:1005600002F087FDB149684602F0EFFD9DE8070003
:10057000C4E90412E060AD49684602F0D8FD9DE888
:100580000700C4E90712A0613EBD7FB598B00546DB
:10059000239EAB48007800F0010048B9A84805F058
:1005A0009BFC28B1A74806F06FF9A548AFF300807F
:1005B000A548007800F0010048B9A34805F08CFC7C
:1005C00028B1A24806F060F99F48AFF30080A04828
:1005D000007800F0010068B99D4805F07DFC48B145
:1005E0004FF08B43002211469A4806F049F998488B
:1005F000AFF300809848007800F0010060B9964899
:1006000005F06AFC40B100231A469449944806F06C
:1006100037F99148AFF3008009AC204606F034F971
:10062000044604F10C0006F02FF9A0F10C0404F1CB
:10063000180006F029F9A0F1180400BF834A19A98F
:1006400006A806F008FA06A807C812AB07C34FF0C1
:100650007C5212A903A806F0E2F903A807C815AB5B
:1006600007C3324615A9684606F0D9F975489DE8D2
:100670000E000EC0754819A90EC90EC0714909A80F
:1006800006F044F8734A09A906A806F037F971483C
:1006900006A90EC90EC0724A09A906A806F02EF9CD
:1006A0006F4806A90EC90EC063484068049020A890
:1006B00007C801AB07C367488068009065482946B2
:1006C0000CC806A8FFF7B8FE624806A90EC90EC0FE
:1006D00029460C3806F09EF82946614806F0C4F811
:1006E0001CB070BD2DE9F04782460C465D49096893
:1006F000601A06F027FB07465B4A5C4B06F036FBA8
:10070000054606F0FFF98146564804604846BDE8B4
:10071000F08770B586B00446D4E90701CDE9000141
:1007200004F13002214603A8A369FFF737FE03A8AE
:1007300007C8C4E90A12606202F046F8064631466C
:100740002046FFF7CFFF05460395D4E90A12606AF9
:100750008DE807002046D4E90423E168FFF715FF80
:1007600006B070BDF0B599B00446219E0DA806F004
:100770008BF80AA806F088F807A806F085F81EADE1
:10078000284606F00DF907463946284606F085F852
:1007900000BF0DA904F1580001F060FD0DAA1EA9CB
:1007A00004A806F074F904A807C80AAB07C3304AC6
:1007B0000AA904A806F033F904A807C816AB07C3B2
:1007C00016A907A806F07DF84FF080420AA904A8F0
:1007D00006F025F904A807C810AB07C307AA10A99B
:1007E00001A806F038F901A807C813AB07C313A97D
:1007F00004F10C0006F065F8324604F10C0104F136
:10080000580001F09CFD04F1580001F06DFC04F16A
:100810000803221D214604F1580001F022FF19B0FF
:10082000F0BD10B51348FFF737FE10BD0C020020D5
:10083000000020416F12033B800000209A99993FED
:100840001400002000010020100000200C010020F6
:100850000C000020180100200800002000007A444D
:1008600024010020040000208DEDB5A0F7C6B03EA5
:100870006F12833A9800002070B504460E46154664
:100880002A4604F10801FE4802F05CFD70BD73B514
:100890000446AA202072AA216172F021A1720321CC
:1008A000E172BA2121739DF8051061739DF804105F
:1008B000A1730025002006E004F10801095C294429
:1008C000CDB2411CC8B20728F6DBE573082204F15B
:1008D00008012046FFF7D0FF7CBD2DE9F041054619
:1008E0000C4616460027002004E0215C3944CFB2B4
:1008F000411CC8B2711E8142F7DCA01910F8010C2E
:10090000B84201D0BDE8F0812078AA2802D16078F1
:10091000AF2800D0F6E70021DA484172A07801281C
:1009200011D12079012801D1D749087020790228F6
:1009300002D10120D44948702079032803D1012035
:10094000D14908704870A078022806D12079012882
:1009500002D1A870E870287100BFA07803282FD1B9
:100960002079617941EA0020C849C880A079E179FD
:1009700041EA0020C5498880207A617A41EA002056
:10098000C2490880A07AE17A41EA0020BF49488044
:10099000207B617B41EA0020BC490881A07BE17B90
:1009A00041EA0020B9494881207C617C41EA00206D
:1009B000B6498881A07CE17C41EA0020B349C88126
:1009C000A07810283DD12079617941EA0020B04912
:1009D0000880A079E17941EA0020AD494880207A79
:1009E000617A41EA0020AA498880A07AE17A41EA46
:1009F0000020A7498882207B617B41EA002081B2E8
:100A0000A348C182A07BE17B41EA002081B2A048DB
:100A10000183207C617C41EA00209D490885A07CFF
:100A2000E17C41EA002081B299484185207D617DC9
:100A300041EA002081B29648818539462846FFF771
:100A400026FFA078112846D12079617941EA00205B
:100A50008F498887A079E17941EA002081B28C48EA
:100A6000C187207A617A41EA002081B28848A0F8E3
:100A70004010A07AE17A41EA00208549A1F85000AF
:100A8000207B617B41EA002081B28148A0F85210AE
:100A9000A07BE17B41EA002081B27D48A0F85410A0
:100AA000207C617C41EA00207949A1F86400A07CA7
:100AB000E17C41EA002081B27548A0F86610207DF3
:100AC000617D41EA002081B27148A0F86810394682
:100AD0002846FFF7DCFEA078122806D139462846C2
:100AE000FFF7D5FE6B4801F04CF9A078122803D12E
:100AF00039462846FFF7CBFEA078122803D13946A5
:100B00002846FFF7C4FEA078122803D139462846AC
:100B1000FFF7BDFE00BFF5E610B50446584802F0E9
:100B20008EFC10BDF8B504460025AA2229466D1C8E
:100B300004F10800425429466D1C425411222946F2
:100B40006D1C4254002229466D1C42545048808F2F
:100B500000B200909DF8012029466D1C04F10800A8
:100B600042549DF8002029466D1C42544848C08FCD
:100B700000B200909DF8012029466D1C04F1080088
:100B800042549DF800202846691CCDB204F10801AA
:100B90000A543F48B0F8400000B200909DF8012090
:100BA0002846691CCDB204F108010A549DF80020C2
:100BB0002846691CCDB204F108010A543448B0F843
:100BC000500000B200909DF801202846691CCDB26B
:100BD00004F108010A549DF800202846691CCDB292
:100BE00004F108010A542A48B0F8520000B20090FB
:100BF0009DF801202846691CCDB204F108010A5471
:100C00009DF800202846691CCDB204F108010A5461
:100C10001F48B0F8540000B200909DF8012028460B
:100C2000691CCDB204F108010A549DF80020284641
:100C3000691CCDB204F108010A541548B0F86400EB
:100C400000B200909DF801202846691CCDB204F145
:100C500008010A549DF800202846691CCDB204F111
:100C600008010A540A48B0F8660000B200909DF8E6
:100C700001202846691CCDB204F108010A540BE09A
:100C800064020020800000200C0200206A01002085
:100C900084010020240000209DF800202846691CC3
:100CA000CDB204F108010A54FE48B0F8680000B261
:100CB00000909DF801202846691CCDB204F108017E
:100CC0000A549DF800202846691CCDB204F10801A1
:100CD0000A54281FE0720026002006E004F10801F3
:100CE000095C3144CEB2411CC8B2A842F6DB2846AA
:100CF000691CCDB204F108010E542A462046FFF7C4
:100D0000BBFDF8BDF8B504460025AA2229466D1C96
:100D100004F10800425429466D1C42541022294611
:100D20006D1C4254002229466D1C4254DD48008847
:100D300000B200909DF8012029466D1C04F10800C6
:100D400042549DF8002029466D1C4254D5484088E5
:100D500000B200909DF8012029466D1C04F10800A6
:100D600042549DF800202846691CCDB204F10801C8
:100D70000A54CC48808800B200909DF80120284693
:100D8000691CCDB204F108010A549DF800202846E0
:100D9000691CCDB204F108010A54C248808A00B22D
:100DA00000909DF801202846691CCDB204F108018D
:100DB0000A549DF800202846691CCDB204F10801B0
:100DC0000A54B848C08A00B200909DF80120284615
:100DD000691CCDB204F108010A549DF80020284690
:100DE000691CCDB204F108010A54AE48008B00B270
:100DF00000909DF801202846691CCDB204F108013D
:100E00000A549DF800202846691CCDB204F108015F
:100E10000A54A448008D00B200909DF80120284695
:100E2000691CCDB204F108010A549DF8002028463F
:100E3000691CCDB204F108010A549A48408D00B2F1
:100E400000909DF801202846691CCDB204F10801EC
:100E50000A549DF800202846691CCDB204F108010F
:100E60000A549048808D00B200909DF801202846D9
:100E7000691CCDB204F108010A549DF800202846EF
:100E8000691CCDB204F108010A54281FE072002643
:100E9000002006E004F10801095C3144CEB2411C97
:100EA000C8B2A842F6DB2846691CCDB204F108019D
:100EB0000E542A462046FFF7DFFCF8BDFEB5044677
:100EC00000256946784800F095FB002008E03DF8D1
:100ED0001010A1F57A7189B22DF81010411CC8B21A
:100EE0000628F4DBAA222846691CCDB204F10801C9
:100EF0000A542846691CCDB204F108010A5406229E
:100F00002846691CCDB204F108010A540022284683
:100F1000691CCDB204F108010A549DF8032028464B
:100F2000691CCDB204F108010A549DF8022028463C
:100F3000691CCDB204F108010A549DF80720284627
:100F4000691CCDB204F108010A549DF80620284618
:100F5000691CCDB204F108010A549DF80B20284603
:100F6000691CCDB204F108010A549DF80A202846F4
:100F7000691CCDB204F108010A549DF805202846E9
:100F8000691CCDB204F108010A549DF804202846DA
:100F9000691CCDB204F108010A549DF801202846CD
:100FA000691CCDB204F108010A549DF800202846BE
:100FB000691CCDB204F108010A549DF809202846A5
:100FC000691CCDB204F108010A549DF80820284696
:100FD000691CCDB204F108010A54281FE0720026F2
:100FE000002006E004F10801095C3144CEB2411C46
:100FF000C8B2A842F6DB2846691CCDB204F108014C
:101000000E542A462046FFF737FCFEBD70B5044655
:101010000025AA2229466D1C04F1080042542946E5
:101020006D1C4254032229466D1C4254002229465D
:101030006D1C42541D48C27929466D1C04F10800FC
:1010400042541A48827929466D1C04F10800425422
:101050001648427929466D1C04F108004254134891
:1010600002792846691CCDB204F108010A540F48E0
:1010700042782846691CCDB204F108010A540B4895
:1010800002782846691CCDB204F108010A540748C9
:10109000C2782846691CCDB204F108010A540348FD
:1010A000827805E0840100201A0000206A010020F7
:1010B0002846691CCDB204F108010A54F748427A67
:1010C0002846691CCDB204F108010A54F348027A9B
:1010D0002846691CCDB204F108010A54EF48C27ACF
:1010E0002846691CCDB204F108010A54EB48827A03
:1010F0002846691CCDB204F108010A54E748427B36
:101100002846691CCDB204F108010A54E348027B69
:101110002846691CCDB204F108010A54DF48C27B9D
:101120002846691CCDB204F108010A54DB48827BD1
:101130002846691CCDB204F108010A54281FE07248
:101140000026002006E004F10801095C3144CEB21B
:10115000411CC8B2A842F6DB2846691CCDB204F196
:1011600008010E542A462046FFF786FB70BD70B575
:1011700088B004460025AA2229466D1C04F1080007
:10118000425429466D1C4254022229466D1C425489
:10119000002229466D1C4254C149886906F030F985
:1011A00000B207909DF81D2029466D1C04F108002F
:1011B00042549DF81C2029466D1C4254B849C86908
:1011C00006F01EF900B207909DF81D2029466D1CFF
:1011D00004F1080042549DF81C202846691CCDB239
:1011E00004F108010A54AE49086A06F009F900B290
:1011F00007909DF81D202846691CCDB204F1080116
:101200000A549DF81C202846691CCDB204F108013F
:101210000A54A44901A801F091FF01A807C804AB32
:1012200007C306F0EDF800B207909DF81D20284690
:10123000691CCDB204F108010A549DF81C2028460F
:10124000691CCDB204F108010A54964901A801F0C5
:1012500075FF01A807C804AB07C3084606F0D0F81D
:1012600000B207909DF81D202846691CCDB204F1FC
:1012700008010A549DF81C202846691CCDB204F1CF
:1012800008010A54874901A801F058FF01A807C8BE
:1012900004AB07C3104606F0B3F800B207909DF800
:1012A0001D202846691CCDB204F108010A549DF89E
:1012B0001C202846691CCDB204F108010A54002202
:1012C0002846691CCDB204F108010A542846691C5D
:1012D000CDB204F108010A542846691CCDB204F1CC
:1012E00008010A542846691CCDB204F108010A54C9
:1012F0002846691CCDB204F108010A542846691C2D
:10130000CDB204F108010A54281FE0720026002023
:1013100006E004F10801095C3144CEB2411CC8B2B8
:10132000A842F6DB2846691CCDB204F108010E5430
:101330002A462046FFF7A0FA08B070BD2DE9FC410F
:1013400004460025AA2229466D1C04F108004254D7
:1013500029466D1C4254012229466D1C425400222C
:1013600029466D1C42544E4908684F4906F0C4F89E
:10137000074606F045F800B201909DF80520294681
:101380006D1C04F1080042549DF8042029466D1C90
:10139000425443494868444906F0AEF8074606F00F
:1013A0002FF800B201909DF8052029466D1C04F12C
:1013B000080042549DF804202846691CCDB204F16F
:1013C00008010A5436498868374906F095F80746F7
:1013D00006F016F800B201909DF805202846691C19
:1013E000CDB204F108010A549DF804202846691C76
:1013F000CDB204F108010A54002000909DF80320AA
:101400002846691CCDB204F108010A549DF8022057
:101410002846691CCDB204F108010A549DF8012048
:101420002846691CCDB204F108010A549DF8002039
:101430002846691CCDB204F108010A54281FE07245
:101440000026002006E004F10801095C3144CEB218
:10145000411CC8B2A842F6DB2846691CCDB204F193
:1014600008010E542A462046FFF706FABDE8FC8123
:1014700010B504460D480078012804D0022805D094
:101480001E2815D105E0012060711FE00120E071E8
:101490001CE000200549087018E000006A010020E7
:1014A000980000200C0200200000C8421800002014
:1014B0002A480078032190FBF1F201FB120010B1E1
:1014C0000120607001E00120207000BF00BF2348B0
:1014D0000078401C21490870207820B1002020703D
:1014E0002046FFF72BFF607820B100206070204677
:1014F000FFF73DFE607920B1002060712046FFF7C4
:1015000085FDE07920B10020E0712046FFF7D6FC90
:10151000A07820B10020A0702046FFF7F3FBE07810
:1015200020B10020E0702046FFF7FCFA10BD0C4906
:1015300009781E290CDD0021094A11700949497AF0
:1015400019B9012207494A7202E00021054A1172C5
:1015500003490978491C024A11707047180000209D
:1015600019000020800000202DE9F04704460D46B8
:1015700016461F46DDF82080A81B3844A0EB080063
:101580002080A81BC01B40446080A81938444044F8
:10159000A080A819C01BA0EB0800E0804FF0000954
:1015A0000DE034F8190040F26C7240F24C4100F04A
:1015B0000FFD24F8190009F1010000F0FF09B9F14D
:1015C000040FEEDB1048007A20B11048C088B0F557
:1015D000966F09DA002005E04FF47A7124F81010B4
:1015E000411CC8B20428F7DB2146094801F0FEFF80
:1015F000BDE8F08702880A8042884A8082888A8013
:10160000C288CA8070470000800000206A01002064
:1016100048000020704700B501460846FFF7FAFF72
:10162000084600BD2DE9FC5F82464FF0000816E039
:101630003AF81810A1F2DC5005F06DFB06460022C6
:101640006D4B05F093FB044605F036FB01B20AF141
:10165000100020F8181008F1010000F0FF08B8F1A0
:10166000030FE5DBBAF81400404201B2AAF81410E7
:10167000BAF8060001B2AAF81610BAF91400002848
:1016800002DDBAF9140002E0BAF91400404246281B
:1016900040DABAF8060040F27E4188423ADD574A05
:1016A000516D906806F0E8F8044605F0A9FE0FFABF
:1016B00080FB1BF1B40F03DC0BF5B4700FFA80FB59
:1016C000BBF1B40F03DBABF5B4700FFA80FBCBF1C9
:1016D00000000FFA80FB4A49B1F8641001FB0BF0DF
:1016E00005F019FB8046474A474B05F03FFB04468F
:1016F0000D46BAF9140005F00EFB064622462B46AD
:1017000005F032FCCDE9000105F0D6FA01B2AAF8E5
:10171000141003E03948806838494865BDE8FC9FEB
:101720000146002026E031F81020B2F5617F04DB8D
:1017300031F81020B2F5FA6F00DD1DE031F810200D
:1017400040F27E439A4207DA304A125C304B1B78F3
:101750001A432F4B1A700CE031F8102040F23A7304
:101760009A4206DD2B4A125C294B1B781A43284B00
:101770001A70401C0428D6DB00BF254A12784AB1F3
:10178000254A1278FA2A0ADA234A1278521C224B86
:101790001A7004E00022204B1A701D4B1A701E4A6A
:1017A0001278642A22D11D4A127A6AB1184A127834
:1017B00002F01002AAB1164A127802F0400282B179
:1017C0000022164B1A720CE0114A127802F0200225
:1017D0003AB10F4A127802F0400212B101220F4BC7
:1017E0001A7200220A4B1A700B4B1A70704700B520
:1017F0000B48FFF710FF00BD0000D03F980000200D
:10180000840100209A9999999999B93F427A0008E0
:1018100023000020467A00082200002080000020DB
:101820006A010020F0B503469888D0B1CAB11869A2
:101830000C1A19611546D61702EB167636114FF6BB
:10184000FF7797FBF6F606FB04F0C61700EB9666EB
:10185000B411988800FB04F5E81705EB106000123E
:10186000F0BD0020FCE770B504460E4615466088C2
:10187000B8B1B5B106FB05F0C11700EB5151C91263
:101880006288E36801FB0231E160A2685142E068CE
:1018900000F0A9FBE060E168C81701EBD0404013FD
:1018A00070BD0020FCE70246108800FB01F3D8174A
:1018B00003EB5060C01170472DE9F04104460D461E
:1018C000164629462046FFF7EEFF074632462946D0
:1018D0002046FFF7C8FF0744324629462046FFF757
:1018E000A1FF3844BDE8F0812DE9F04104460D46E2
:1018F000164629462046FFF7D6FF074632462946B8
:101900002046FFF7B0FF3844BDE8F0810021C160F8
:101910007047000038B504468E485A231E221946E7
:101920000090204604F09FFA8A485A231E22194646
:10193000009004F1140004F096FA86480023552222
:101940009621009004F1280004F08DFA002003464F
:1019500002464FF48C71009004F1500004F083FAB9
:101960000020034602460F21009004F1640004F0B9
:101970007AFA38BD10B5044606231422764920466B
:1019800004F098FA0446782084F878002046FFF79F
:10199000C1FF204610BD2DE9F0418EB0044606A8D7
:1019A000002181604160016000BF6C4908686C499A
:1019B00005F0A2FD07466B49B1F910104800FA2264
:1019C000514200F010FB804605F036FD06463946D0
:1019D00005F052FF054605F013FD09905F49486880
:1019E0005F4905F089FD07465E49B1F912104800CC
:1019F000FA22514200F0F7FA804605F01DFD064636
:101A0000394605F039FF054605F0FAFC0A905649BB
:101A100003A801F093FB03A807C80BAB07C34FF063
:101A200081420BA9684604F0C2FF9DE8070006AB9F
:101A300007C304F150000999FFF735FF074605F089
:101A4000FBFC0646069905F017FF054605F0D8FC95
:101A5000E06704F150000A99FFF725FF074605F0FB
:101A6000EBFC0646079905F007FF054605F0C8FCA4
:101A70008021085194F878003A49B1F9141000FB1C
:101A800001F5E91705EBD161481105F0D5FC0746D2
:101A9000089905F0F1FE064605F0B2FC84210851D4
:101AA0000EB0BDE8F0817FB5054600241CE02D484E
:101AB000C08840F27E41884205DA04EB840105EBE0
:101AC0008100FFF723FF05F17C0252F8241004EB9C
:101AD000840205EB82004FF4FA62FFF7EDFE01A9E4
:101AE00041F82400601CC4B2032CE0DB1D4BB3F9A9
:101AF0001430002B03DD1B4BB3F9143003E0194BFA
:101B0000B3F914305B4203F59672164BB3F91430F7
:101B1000002B03DD134BB3F9143003E0114BB3F981
:101B200014305B42114CE11A039800F05CFA404219
:101B30000390039800900B48C08A81B20C48DDE9FD
:101B40000123FFF711FD7FBD10B50A48FFF712FF13
:101B500010BD000080841E00755E00089800002003
:101B6000000020416A0100200C020020D4FEFFFF8B
:101B70001A0000208401002010B50446EB490888B3
:101B8000EB49098801F0BEFF10BD1CB50446E749CA
:101B90000889694601F011FEE44948890DF1020106
:101BA00001F00BFEE149888901A901F006FEBDF8AC
:101BB000000000B2DF490881BDF8020001B2DD4833
:101BC0004181BDF8040001B2DA4881811CBD1CB519
:101BD0000446D6494888694601F0EFFDD349888814
:101BE0000DF1020101F0E9FDD049C88801A901F019
:101BF000E4FDBDF8000000B2CE494880BDF8020007
:101C000001B2CC488180BDF8040001B2C948C1804E
:101C10001CBD38B50446C549C889694601F0CDFDEB
:101C2000BDF80000C4490880C049088A694601F02F
:101C3000C4FDBDF80000C0494880BC49488A6946D7
:101C400001F0BBFDBDF80000BB498880B749888A18
:101C5000694601F0B2FDBDF80000B7498882B3497A
:101C6000C88A694601F0A9FDBDF80010B248C182DA
:101C7000AE49088B694601F0A0FDBDF80010AE48E2
:101C80000183AA49488B694601F097FDBDF8000021
:101C9000A9490885A549888B694601F08EFDBDF8E4
:101CA0000010A5484185A149C88B694601F085FD12
:101CB000BDF80010A04881859C49088C694601F058
:101CC0007CFDBDF800009C4988879849488C69468E
:101CD00001F073FDBDF800109748C1879349888CC7
:101CE000694601F06AFDBDF800109348A0F8401065
:101CF0008E49C88C694601F060FDBDF800008E4930
:101D0000A1F850008949088D694601F056FDBDF8DB
:101D100000108948A0F852108449488D694601F0A6
:101D20004CFDBDF800108448A0F854107F49888D00
:101D3000694601F042FDBDF800007F49A1F864004A
:101D40007A49C88D694601F038FDBDF800107A481F
:101D5000A0F866107549088E694601F02EFDBDF8A1
:101D600000107548A0F8681038BD10B5044620462C
:101D7000FFF74FFF2046FFF72AFF2046FFF705FF3A
:101D800010BD70B505466C4804886849C88921466D
:101D900001F0B8FE684844886449088A214601F089
:101DA000B1FE654884886149488A214601F0AAFE4F
:101DB0006148848A5D49888A214601F0A3FE5E4815
:101DC000C48A5A49C88A214601F09CFE5A48048BAD
:101DD0005649088B214601F095FE5748048D53491A
:101DE000488B214601F08EFE5348448D4F49888B25
:101DF000214601F087FE5048848D4C49C88B21460E
:101E000001F080FE4C48848F4849088C214601F03F
:101E100079FE4948C48F4549488C214601F072FE3D
:101E20004548B0F840404149888C214601F06AFE9F
:101E30004148B0F850403D49C88C214601F062FE4F
:101E40003D48B0F852403949088D214601F05AFE0C
:101E50003948B0F854403549488D214601F052FECA
:101E60003548B0F864403149888D214601F04AFE7A
:101E70003148B0F866402D49C88D214601F042FE38
:101E80002D48B0F868402949088E214601F03AFEF5
:101E900070BD38B5044625490888694601F08DFCB7
:101EA000BDF8000038BD10B504462046FFF7F1FF2D
:101EB0001F490988884202D02046FFF762FF20466A
:101EC000FFF753FF2046FFF757FE10BD10B504463D
:101ED000184A528891B2154A508801F013FE154AEB
:101EE000928891B2114A908801F00CFE114AD28872
:101EF00091B20E4AD08801F005FE10BD10B504461F
:101F00000C4A128991B2094A108901F0FBFD094A75
:101F1000528991B2054A508901F0F4FD054A92892F
:101F200091B2024A908901F0EDFD10BD4A7A000895
:101F3000260000200C0200208401002010B5044679
:101F4000204603F0B0FF08B1002010BD4FF07E51D5
:101F5000204605F09DFB01D85E48F6E75E49204625
:101F600005F096FA01D85D48EFE7204604F06EF8D8
:101F7000EBE72DE9F04106460C461546304603F0E6
:101F800092FF50B12946204605F004F907464FF06C
:101F90007C5105F0B1FABDE8F0812146304605F0EC
:101FA00077FA01D22046F6E72946304605F070FB65
:101FB00001D22846EFE73046EDE703468B4201DACF
:101FC00008467047934201DD1046FAE71846F8E7E5
:101FD00003468B4201DA08467047934201DD104602
:101FE000FAE71846F8E703468B4201DA08467047DD
:101FF000934201DD1046FAE71846F8E710B50446AB
:102000003749204605F078FA10BD10B50446354929
:10201000204605F071FA10BD10B504462146204651
:1020200005F06AFA10BD2DE9F04105460C46204640
:10203000FFF7F2FF07462846FFF7EEFF80463946D6
:1020400005F0A8F8064604F04BFBBDE8F0812DE949
:10205000F05F06460C4615462846FFF7DDFF814631
:102060002046FFF7D9FF82463046FFF7D5FF83466B
:10207000514605F08FF88046494605F08BF8074633
:1020800004F02EFBBDE8F09F2DE9FE4F07460C46FD
:1020900015461E463046FFF7BFFF02902846FFF761
:1020A000BBFF01902046FFF7B7FF00903846FFF7CF
:1020B000B3FF8346009905F06DF88246019905F05B
:1020C00069F88146029905F065F8804604F008FB3E
:1020D000BDE8FE8FDB0FC93F000080BFDB0FC9BF2B
:1020E00034FA8E3CE12E654270B5044694E80F0048
:1020F000FFF7CAFF05462946206805F0BFF82060B3
:102100002946606805F0BAF860602946A06805F0C5
:10211000B5F8A0602946E06805F0B0F8E06070BD51
:102120002DE9F04F85B004460D46A168084605F03C
:10213000E3F90746D4E9020105F0DEF9804661685B
:10214000084605F0D9F98146D4E9010105F0D4F932
:102150008246E168606805F0CFF90490D4E9000197
:1021600005F0CAF90390A168206805F0C5F902904E
:10217000E168206805F0C0F90190E168084605F0C3
:10218000BBF900903846009905F004F883464FF0FB
:10219000804105F0B1F906464FF07E5105F0DAFABC
:1021A00028605046019905F067FB06464FF08041D4
:1021B00005F0A2F968600299049804F0EBFF064666
:1021C0004FF0804105F098F9A8605046019904F05D
:1021D000E1FF06464FF0804105F08EF9E860484681
:1021E000009904F0D7FF83464FF0804105F084F951
:1021F00006464FF07E5105F0ADFA2861404603993E
:1022000005F03AFB06464FF0804105F075F968612C
:102210000299049805F030FB06464FF0804105F026
:102220006BF9A8614046039904F0B4FF06464FF0ED
:10223000804105F061F9E8613946484604F0AAFF9B
:1022400083464FF0804105F057F906464FF07E5126
:1022500005F080FA286205B0BDE8F08F2DE9F0475F
:1022600004460D46A168206805F046F90746E16876
:10227000606805F041F98046394605F0FDFA0646EA
:102280004FF0804105F038F92860D4E9020105F0EB
:1022900033F90746D4E9000105F02EF980463946A6
:1022A00004F078FF06464FF0804105F025F968609C
:1022B000A168084605F020F980466168084605F0E7
:1022C0001BF98146414604F065FF07464FF0804107
:1022D00005F012F906464FF07E5105F03BFAA86072
:1022E000BDE8F08770B58CB006460C4603AD2846B5
:1022F00004F0CAFA054605F10C0004F0C5FAA0F195
:102300000C0505F1180004F0BFFAA0F1180500BF94
:10231000A06880F00040A06003A93046FFF700FFEE
:10232000224603A9684604F0E9FA9DE8070084E81C
:102330000700A06880F00040A0600CB070BD2DE9DF
:10234000F04F8FB0044689469246504604F0F6FEA0
:10235000CDE90801D9F80810E06805F0CDF804903F
:10236000D9F80410A06805F0C7F80390606880F001
:1023700000400190D9F8001005F0BEF802900399D2
:1023800005F07AFA8346049905F076FA059004F090
:10239000D5FE07460022F74B04F0E8FCCDE9060124
:1023A000DDE9082304F0E2FC05460E46206804F04F
:1023B000C5FE2A463346CDE90A0104F0D5FBCDE936
:1023C0000C0104F09FFB2060504604F0B7FECDE9FD
:1023D0000601D9F80410E06805F08EF80490D9F8E9
:1023E0000810A06805F088F80390D9F8001020685C
:1023F00005F082F80290039904F0CCFE834604991C
:1024000005F03AFA059004F099FE07460022D94BF0
:1024100004F0ACFC0546DDE9062304F0A7FCCDE999
:102420000A01606804F08AFECDE90801DDE90A23AB
:1024300004F09AFBCDE90C0104F064FB60605046A7
:1024400004F07CFECDE90801D9F80010E06805F041
:1024500053F80490D9F80810606805F04DF803901F
:10246000D9F80410206805F047F80290039905F0A8
:1024700003FA8346049904F08DFE059004F05EFE95
:102480000022BC4BCDE9060104F070FC0746DDE9F3
:10249000082304F06BFCCDE90A01A06804F04EFEAD
:1024A0000546DDE90A2304F05FFBCDE90C0104F0E9
:1024B00029FBA060504604F041FECDE90601D9F8A1
:1024C0000010A06805F018F80390D9F804106068AF
:1024D00005F012F88346D9F80810206805F00CF8CA
:1024E0005946029004F056FE8046039905F0C4F95F
:1024F000074604F023FE054600229E4B04F036FCFE
:10250000CDE90401DDE9062304F030FCCDE90A0140
:10251000E06804F013FECDE90801DDE90A2304F0C8
:1025200023FBCDE90C0104F0EDFAE0600FB0BDE84B
:10253000F08F2DE9F04F85B004460D4616461F4634
:102540004FF07C51284604F0D7FF824603F040FF4D
:1025500080464FF07C51304604F0CEFF824603F0B7
:1025600037FF81464FF07C51384604F0C5FF824664
:1025700003F02EFF04904FF07C51284604F0BCFF7E
:10258000824603F0E7FF03904FF07C51304604F0A1
:10259000B3FF824603F0DEFF02904FF07C513846D5
:1025A00004F0AAFF824603F0D5FF0190DDE9021096
:1025B00004F0A2FF0090019904F09EFF8246494674
:1025C000404604F099FF0090049904F095FF83467B
:1025D000514604F0DFFD20604046029904F08CFF74
:1025E0000090019904F088FF82464946039804F060
:1025F00083FF0090049904F07FFF8346514605F065
:102600003BF960604946039804F076FF0090019919
:1026100004F072FF82464046029904F06DFF00907C
:10262000049904F069FF8346514604F0B3FDA060AD
:10263000DDE9021004F060FF0090049904F05CFFF3
:1026400082464946404604F057FF0090019904F045
:1026500053FF8346514605F00FF9E06005B0BDE831
:10266000F08F2DE9FE4F04460D4616461F468DB3EA
:10267000A168084604F040FF01906168084604F034
:102680003BFF0090019904F085FD83464FF08041A7
:1026900004F032FF82464FF07E5105F05BF8814630
:1026A000D4E9020104F028FF8346D4E9000104F0D4
:1026B00023FF5946019004F06DFD82464FF08041A2
:1026C00004F01AFF4946029003F054FD8046FFF7DC
:1026D0009CFC2860C6B1E168606804F00DFF834689
:1026E000A168206804F008FF5946029005F0C4F87C
:1026F00082464FF0804104F0FFFE8146FFF71EFC4A
:102700008046FFF782FC30608FB36168084604F0B2
:10271000F3FE01902168084604F0EEFE0090019956
:1027200004F038FD83464FF0804104F0E5FE824618
:102730004FF07E5105F0A0F80290E168206804F0A7
:10274000DBFE8346D4E9010104F0D6FE5946019030
:1027500005F092F882464FF0804104F0CDFE8146AC
:10276000029903F007FD8046FFF74FFC3860BDE893
:10277000FE8F00000000E03F00B585B0684601F024
:10278000C2FD42490098B0FBF1F04149086005B034
:1027900000BD40480068401C3E4908603E48008833
:1027A000401C3D49088008464088401C4880084637
:1027B0008088401C88800846C088401CC880084625
:1027C0000089401C0881704700BF324801684FF003
:1027D000E02082692F4800688142F6D12C480068C9
:1027E00000EB4003C3EBC010C2EBC000284B1B68DA
:1027F000B0FBF3F001EB4103C3EBC11300EBC300EB
:10280000704770B54FF4407001F060FAFFF7B4FF05
:10281000224800684FF47A72B0FBF2F1481EB0F122
:10282000807F00D31BE0481E4FF0E022506150171C
:102830000F22002807DA13071D0E194B00F00F04B2
:10284000241F1D5503E013071C0E164B1C5400BF1C
:1028500000204FF0E02290610720106100BF00F0DF
:1028600036F801F099F9502204210F4800F0DBFC02
:1028700045F6C05000F01EFE01F05EF90B4801F075
:1028800077F902F03EFD01F0B8F870BD40420F004C
:10289000280000202C0000208C0000206C0000206C
:1028A00018ED00E000E400E0640200205400002085
:1028B000704700BFFEE700BFFEE700BFFEE77047BE
:1028C000704710B5FFF765FF10BD7047704708B53A
:1028D0000121082001F084FD4FF48060ADF8000074
:1028E00003208DF8020014208DF803006946F64895
:1028F00001F0BAFA4FF40060ADF8000003208DF843
:10290000020014208DF803006946EF4801F0ACFA8C
:1029100008BD704700B501464FF48060EA4A1432A2
:1029200010600846FFF7F5FF4FF40060E64A1432E6
:1029300010600846FFF7EDFF4FF48060E24A103266
:1029400010600846FFF7E5FF4FF40060DE4A1032E2
:1029500010600846FFF7DDFF00BD00B501464FF4EB
:102960008060D94A143210600846FFF7D2FF4FF456
:102970000060D54A103210600846FFF7CAFF4FF4D6
:102980008060D14A103210600846FFF7C2FFCE487F
:102990000830006800F4006048B14FF48060CA4A13
:1029A000143210600846FFF7B4FF002000BD4FF45A
:1029B0008060C54A143210600846FFF7AAFF012064
:1029C000F4E710B50246082320E04FF48060BE4CC7
:1029D000143420601046FFF79CFF01F0800018B10E
:1029E000E014241F206004E04FF40060B64C14345F
:1029F00020604806010E1046FFF78BFF4FF4806001
:102A0000B14C103420601046FFF783FF1800A3F18B
:102A10000104E3B2D9D14FF48060AB4C1434206090
:102A200010BD00B501464FF40060A74A1032106097
:102A3000401010600846FFF76CFFA348083000689C
:102A400008B9012000E0002000F4006008B1002077
:102A500000BD4FF400609C4A143210600846FFF736
:102A600058FF99480830006800F4006008B1002061
:102A7000EEE74FF40060944A143210600846FFF706
:102A800048FF0120E4E7F0B506460F4614461D4610
:102A90003046FFF7C6FF08B90020F0BD3946304682
:102AA000FFF78FFF3046FFF758FF20B93046FFF79A
:102AB00031FF0020F1E721463046FFF782FF304624
:102AC000FFF74BFF29463046FFF77BFF3046FFF705
:102AD00044FF3046FFF71EFF0120DEE700B5014648
:102AE0004FF48060784A143210600846FFF711FFF7
:102AF0004FF40060744A103210600846FFF709FF77
:102B00004FF48060704A103210600846FFF701FFF2
:102B10004FF480606C4A143210600846FFF7F9FEEB
:102B200000BD10B50246082300211802664C10347F
:102B3000206017E04806010E4FF48060624C1434A8
:102B400020601046FFF7E5FE2015241F2060104688
:102B5000FFF7DFFE5C480830006800F4006008B151
:102B600041F001011800A3F10104E3B2E2D14FF4F6
:102B70008060554C14342060084610BDF0B5064600
:102B80000C4615463046FFF74CFF08B90020F0BD53
:102B900021463046FFF715FF3046FFF7DEFE20B92D
:102BA0003046FFF7B7FE0020F1E729463046FFF731
:102BB00008FF3046FFF7D1FE3046FFF732FF601CBA
:102BC000C1B23046FFF7FDFE3046FFF7C6FE304685
:102BD000FFF7A7FF07463046FFF780FF3046FFF7B5
:102BE00099FE3846D3E700B501464FF48060364A77
:102BF000143210600846FFF78CFE4FF40060324A32
:102C0000143210600846FFF784FE4FF480602E4AAD
:102C1000103210600846FFF77CFE4FF480602A4AAD
:102C2000143210600846FFF774FE00BD2DE9F04332
:102C300081460E4617461C46DDF81C80B8F1010F90
:102C400002DA0020BDE8F0834846FFF7EAFE08B943
:102C50000020F7E731464846FFF7B3FE4846FFF746
:102C60007CFE20B94846FFF755FE0020EAE73946CA
:102C70004846FFF7A6FE4846FFF76FFE4846FFF7B7
:102C8000D0FE701CC1B24846FFF79BFE4846FFF7D6
:102C900064FE012509E04846FFF743FF04F8010BF5
:102CA0004846FFF7A0FF681CC5B24545F3DB484620
:102CB000FFF737FF04F8010B4846FFF70FFF4846C0
:102CC000FFF728FE0120BDE7000C014010B50446C7
:102CD0002046FFF7FBFD0446A01C03F006FE841E01
:102CE00004F1080003F001FEA0F1080404F11C0047
:102CF00003F0CAFDA0F11C0404F1280003F0C4FD98
:102D0000A0F1280404F1340003F0BEFDA0F1340466
:102D1000204610BD30B50346C822002007E000BFA2
:102D20001400A2F10105AAB2FAD1441CE0B2884213
:102D3000F5DB30BD2DE9F04107460D4616462A2E3B
:102D400015D006DC052E0CD00A2E0CD0142E16D170
:102D50000BE0622E0DD0BC2E0DD0B6F5807F0ED1CB
:102D60000BE006240DE005240BE0042409E0032415
:102D700007E0022405E0012403E0002401E002242E
:102D800000BF00BF80236B22D2213846FFF77BFEB5
:102D900005213846FFF7BEFF4FF47A7090FBF5F03F
:102DA000401E00F0FF0843461922D2213846FFF7A3
:102DB0006AFE03236B22D2213846FFF764FE02230A
:102DC0003722D2213846FFF75EFE23461A22D2214F
:102DD0003846FFF758FE18231B22D2213846FFF74A
:102DE00052FE10231C22D2213846FFF74CFEBDE8CC
:102DF000F0812DE9F0410446207800286BD0E648A8
:102E0000007800F0010048B9E34803F065F828B104
:102E1000E24803F039FDE048AFF30080E048008865
:102E200080B900231A461946A01C03F063FD002355
:102E30001A461946D94803F02CFD0120D8490880CC
:102E4000BDE8F08104F11C01D44803F03AFDD448F8
:102E50000088B0F5C87F39D1D148008804F004FB60
:102E60000646CE490868314604F008FA054604F0E3
:102E7000C7FA00B26080CA48008804F0F5FA064636
:102E8000C6494868314604F0F9F9054604F0B8FA35
:102E900001B2A180C248008804F0E6FA0746BF49A3
:102EA0008868394604F0EAF906464FF08B4104F091
:102EB000E3FC054604F0A4FA01B2E1800020B84921
:102EC00008802070B748FFF701F8B9E7B4480088D8
:102ED000401CB349088000BFB2E72DE9FC4104461D
:102EE0003C22D2212046FFF749FEA0733B22D2218B
:102EF0002046FFF743FEE073A17BE07B41EA002020
:102F00004142A088081A00B2ADF802003E22D22148
:102F10002046FFF733FE20743D22D2212046FFF7E2
:102F20002DFE6074217C607C41EA00206188401A9B
:102F300000B2ADF800004022D2212046FFF71EFE6D
:102F4000A0743F22D2212046FFF718FEE074A17C36
:102F5000E07C41EA0021E088081A00B2ADF80400E4
:102F6000BDF9040004F068FA0546BDF9020004F05A
:102F700063FA0646BDF9000004F05EFA07462B46E8
:102F80003246394604F11C0003F083FC2046FFF76B
:102F900030FFBDE8FC8170B504466078002866D03B
:102FA0008148007800F0010048B97F4802F094FFA2
:102FB00028B17E4803F068FC7B48AFF300807C4872
:102FC000008880B900231A46194604F1080003F06E
:102FD00091FC00231A461946744803F05AFC01205C
:102FE0007349088070BD04F12801704803F069FC42
:102FF0006F480088B0F57A7F34D16D48008804F0BE
:1030000033FA064669490868314604F037F905463F
:1030100004F0F6F900B220816548008804F024FA33
:10302000064662494868314604F028F9054604F02E
:10303000E7F901B261815E48008804F015FA06469E
:103040005A498868314604F019F9054604F0D8F960
:1030500001B2A18100205649088060705148FEF7F6
:103060004DFFBFE752480088401C5149088000BF0F
:10307000B8E72DE9FC4104464422D2212046FFF75F
:103080007DFD20754322D2212046FFF777FD607534
:10309000217D607D41EA002041426089081A00B22A
:1030A000ADF802004622D2212046FFF767FDA07549
:1030B0004522D2212046FFF761FDE075A17DE07D2C
:1030C00041EA00202189401A00B2ADF800004822F0
:1030D000D2212046FFF752FD20764722D2212046FA
:1030E000FFF74CFD6076217E607E41EA0021A089D9
:1030F000081A00B2ADF80400BDF9040004F09CF910
:103100000546BDF9020004F097F90646BDF9000036
:1031100004F092F907462B463246394604F128005E
:1031200003F0B7FB2046FFF736FFBDE8FC8110B582
:10313000D1E90834CA6980E81C0010BD10B5D1E996
:103140000B348A6A80E81C0010BD70B505460C4639
:103150001849A06A04F0D0F90646FEF74FFF6063F5
:103160001449E06A04F0C8F90646FEF747FFA06379
:103170001049206B04F0C0F90646FEF73FFFE063FC
:10318000D4E90E12606B85E8070070BD10B50A48DF
:10319000FFF79CFD10BD0000300000204C02002015
:1031A00034000020240000203800002058020020B5
:1031B0003C0000208DC1793D0C0200202DE9F0413A
:1031C00005460E461446284600F073FD3146284653
:1031D00000F040FD07462146284600F03BFD28460A
:1031E00000F060FD3846BDE8F0812DE9F047074664
:1031F000884615461E46384600F05BFD4146384677
:1032000000F028FD8146002405E0295D384600F0E5
:1032100021FD601CC4B2B442F7DB384600F042FD29
:103220004846BDE8F08770B505460C461646284668
:1032300000F031FD05239C4A2A212846FFF7D5FFDF
:1032400005239A4A30212846FFF7CFFF012221218A
:103250002846FFF7B3FF012222212846FFF7AEFFE1
:103260001A2224212846FFF7A9FF324625212846A5
:10327000FFF7A4FF0F2226212846FFF79FFF012C0E
:103280000AD1FF2231212846FFF798FF0F22202183
:103290002846FFF793FF51E0022C0AD1FF2231218B
:1032A0002846FFF78BFF0E2220212846FFF786FFD6
:1032B00044E0032C21D1FF22E1212846FFF77EFFC5
:1032C000FF22E2212846FFF779FF0F22202128461E
:1032D000FFF774FF5021284600F0BCFC73212846FC
:1032E00000F0B8FC01223C212846FFF767FF0622C8
:1032F0003D212846FFF762FF20E00E2220212846CC
:10330000FFF75CFFFF22E1212846FFF757FFFF226E
:10331000E2212846FFF752FF5021284600F09AFC90
:103320007321284600F096FC01223C212846FFF735
:1033300045FF06223D212846FFF740FF284600F0C2
:10334000A3FC70BD70B506460C461546304600F02D
:10335000A2FC0523554A2A213046FFF746FF2B469B
:103360002246A0213046FFF740FF304600F08CFC9B
:1033700070BD70B506460C461546304600F08BFC15
:103380002B462246A8213046FFF72FFF304600F09B
:103390007BFC70BD2DE9F0470746884615461E4662
:1033A000384600F086FC4146384600F053FC814622
:1033B000002406E00021384600F04CFC2855601C33
:1033C000C4B2B442F6DB384600F06CFC4846BDE8B7
:1033D000F0877CB505460523344A30212846FFF79F
:1033E00004FF05236A4610212846FFF7D3FF002477
:1033F00008E01DF804002D49095D884200D003E073
:10340000601CC4B2052CF4DB00BF052C01D10120E7
:103410007CBD0020FCE770B504460D46204600F058
:1034200048FC2946204600F015FC0021204600F00B
:1034300011FC0646204600F035FC304670BD70B5E4
:10344000054607212846FFF7E6FF044604F0400042
:10345000C0B160212846FFF7DEFF0646212E0BDAB9
:1034600033462A4661212846FFF794FF3246294613
:103470000F48FDF732FA04E0FF22E2212846FFF769
:103480009DFE00BF04F0100038B104F0010020B12F
:10349000FF22E1212846FFF791FE224627212846F8
:1034A000FFF78CFE70BD0000430000203E000020AE
:1034B0003001002030B589B005460121042000F01C
:1034C0008FFF40F60310ADF8040003208DF80600CE
:1034D00018208DF8070001A95D4800F0C5FC002404
:1034E0000121C80200F07CFF5A4800685A49B0FB2D
:1034F000F1F0401E84B240F2E730ADF81C00ADF8A8
:1035000018400020ADF81E00ADF81A0006A9534877
:1035100001F09EF86020ADF808000120ADF80A0027
:103520000020ADF80E00ADF8100002A94B4801F0E4
:10353000CCF80821494801F017FD0020ADF80E0035
:1035400002A9464801F09BF90821444801F02BFDEF
:103550000121424801F0E4FB0121404801F0D4FC84
:1035600001213E4801F0D0FB0121084600F045FF53
:10357000384800683849B0FBF1F0401E84B240F290
:10358000E730ADF81C00ADF818400020ADF81E0083
:10359000ADF81A0006A94FF0804001F059F86020FC
:1035A000ADF808000120ADF80A000020ADF80E00CB
:1035B000ADF8100002A94FF0804001F086F8082114
:1035C000C80601F0D1FC02A94FF0804001F0BFF81D
:1035D0000821C80601F0D1FC0121880701F094FC04
:1035E0000121880701F090FB09B030BD02460020A0
:1035F00014E031F81030B3F57A7F04DA4FF47A73BF
:1036000021F8103008E031F81030B3F5FA6F03DD1F
:103610004FF4FA6321F81030431CD8B20428E8DBD9
:103620004888A0F57A700D4B40331880C888A0F503
:103630007A701B0698860888A0F57A70074B343399
:1036400018808888A0F57A701B07188770470000DB
:10365000000801406C00002000366E01002C014083
:10366000034606210622F7480188F7480288ABB1D5
:10367000012B1BD13AB94EF6EE60814201D10020F8
:1036800070470120FCE739B94EF6EE60824201D165
:103690000120F5E70020F3E7AB20F1E709B90020AE
:1036A000EEE70AB90120EBE7AB20E9E70020E7E706
:1036B00070B5042600240120FFF7D2FF0446AB2C8E
:1036C00006D1E04800EB8420E0490860AB2070BDE3
:1036D000DC4800EB8420DD490860601CD949891E64
:1036E00001EB80250CE0D94800680068401C10B947
:1036F00004263046EBE7D5480068001DD349086032
:10370000D2480068A842EED38020E0E710B5042438
:10371000CC4801F03BFE0446042C01D0204610BDED
:103720000021C84801F035FF0446042C01D0204692
:10373000F5E7C54801F02AFE04462046EFE72DE9EB
:10374000F04104460F4604250026DFF804830120DB
:10375000FFF786FF0646AB2E01D1BDE8F081701C55
:10376000B849891E01EB802821E0B848006800684C
:10377000401CB8B93946B548006801F00AFF054653
:10378000042D01D02846E8E72146B0480068801C97
:1037900001F0FFFE0546AD480068001DAB4908601A
:1037A0002846DAE7A9480068001DA8490860A7482C
:1037B00000684045D9D38020CFE72DE9F047064681
:1037C0000F46002545F255584FF001099D4CA24681
:1037D0000020FFF745FF0546AB2D01D1BDE8F0877E
:1037E000984800EB852A99480068841E0AE0B4F8DE
:1037F0000080B04505D134F8020C38804FF0000944
:1038000004E0241F0AF102008442F0D800BF4846B9
:10381000E4E72DE9F0474FF0060A062600250027C9
:10382000A8464FF0FF398748B0F800A086480688C0
:103830005FEA0A0075D0A0F56E40EE3858B3A0F5E7
:103840008850113800286DD146B97E4801F09EFDA0
:103850000446042C1ED02046BDE8F0874EF6EE60EC
:10386000864210D1774801F091FD0446042C01D026
:103870002046F1E70021744801F08BFE0446042C39
:1038800008D02046E8E7FFF741FF0446042C01D0AA
:103890002046E1E7AEE07EBB002522E06948C08813
:1038A0006C4931F81510884201D10FFA85F94D4560
:1038B00015D0684931F815006749FFF77EFF80464B
:1038C000B8F1010F0BD0634931F81500624909883E
:1038D000FFF735FF0746042F01D03846BCE7681CC8
:1038E00085B2192DDADB0021564801F052FE04465C
:1038F000042C02D02046AFE707E0534801F046FD14
:103900000446042C1FD02046A6E74FF6FF708642DF
:1039100012D14D4801F03AFD0446042C03D0204654
:103920009AE711E05EE00021464801F032FE0446CD
:10393000042C08D020468FE7FFF7E8FE0446042C4D
:1039400001D0204688E755E036B9FFF7DFFE044690
:10395000042C46D020467FE74FF6FF70864207D101
:10396000394801F013FD0446042C3AD0204673E791
:10397000002523E03448801D0088364931F81510B1
:10398000884201D10FFA85F94D4515D0314931F8FA
:1039900015003149FFF711FF8046B8F1010F0BD038
:1039A0002C4931F815002C490988FFF7C8FE074655
:1039B000042F01D038464FE7681C85B2192DD9DB9A
:1039C0000021214801F0E5FD0446042C01D02046E9
:1039D00042E71C4801F0DAFC0446042C01D02046E2
:1039E0003AE707E0FFF792FE0446042C01D0204698
:1039F00032E700BF00BF04202EE710B5FFF709FF34
:103A00000446FFF755FE204610BD2DE9F84F074646
:103A100089460425DFF830A0AAF1010A0948009080
:103A20004FF00008002400264FF0000B0020FFF7A5
:103A300017FE8046B8F1010F10D1DFF808A0024848
:103A4000009016E00000010800040108500000206A
:103A5000FF0701084A7A00084C000020B8F1000F67
:103A600004D1DFF8C4A03148009002E0AB20BDE8EB
:103A7000F88F4EF6EE61504601F08BFD0546042DA1
:103A800001D02846F3E7FFF713FE49463846FFF713
:103A900056FE0646042E01D03046E8E700241CE01E
:103AA000234830F81400B84215D0214931F81400E9
:103AB0002049FFF782FE8346BBF1010F0BD01C4962
:103AC00031F814001B490988FFF739FE0646042E19
:103AD00001D03046CBE7601C84B2192CE0DB0098A3
:103AE00001F054FC0546042D01D02846BFE7002113
:103AF000504601F04EFD0546042D01D02846B6E79C
:103B00002846B4E770B505460E46002431462846DF
:103B1000FFF715FE0446802C04D131462846FFF7F6
:103B200074FF0446204670BD00040108000001082F
:103B30004A7A00084C00002008B50121042000F05A
:103B40004FFC0121084600F04BFC0121104800F019
:103B50005CFA10208DF8030003208DF802004FF46A
:103B60000040ADF8000069460A4800F07DF908BD44
:103B700010B504464FF40041064800F024FA10BD89
:103B800010B504464FF40041024800F01AFA10BD87
:103B9000000230000008014000B587B00121042078
:103BA00000F01EFC0121082000F01AFC012108038E
:103BB00000F016FCE020ADF8040001208DF80600AE
:103BC00018208DF8070001A93D4800F04DF920208C
:103BD000ADF8040001208DF8060010208DF80700D4
:103BE00001A9384800F040F91020ADF80400012088
:103BF0008DF8060010208DF8070001A9304800F06C
:103C000033F910212E4800F0DCF90020ADF808004F
:103C10004FF48270ADF80A000020ADF80C00ADF84A
:103C20000E00ADF810004FF40070ADF81200102037
:103C3000ADF814000020ADF816000720ADF818000C
:103C400002A9214801F052FF01211F4801F0F3FFB2
:103C500007B000BD70B505460C4600BF02211A48EA
:103C600002F06DF80028F9D02146174802F014F848
:103C700000BF0121144802F062F80028F9D0124870
:103C800002F00CF8C0B270BD10B5044620210D48FA
:103C900000F097F910BD10B504462021094800F046
:103CA00092F910BD10B504461021054800F089F9BD
:103CB00010BD10B504461021014800F084F910BD74
:103CC00000080140000C014000300140314901432F
:103CD000314A1160704770B5002100230F22C4786B
:103CE00004B32D4C246804F4E064C4F5E064210AB4
:103CF000C1F10403CA40447804FA03F18478144003
:103D000021430901254C0678A155047804F01F05CC
:103D10000124AC4005786D11AD0005F1E025C5F832
:103D2000004109E0047804F01F050124AC401C4D5B
:103D30000678761145F8264070BD1A4A0A400243BB
:103D4000154B1B1F1A60704739B1134A121D1268B8
:103D50000243114B1B1D1A6006E00F4A121D126828
:103D600082430D4B1B1D1A607047042808D14FF089
:103D7000E021096941F004014FF0E022116107E000
:103D80004FF0E021096921F004014FF0E0221161B8
:103D9000704700000000FA050CED00E000E400E0D0
:103DA00080E100E080FFFF1F10B50446CC4884424C
:103DB00008D10121042000F02DFB0021042000F097
:103DC00029FB46E0C748844208D10121082000F0C1
:103DD00021FB0021082000F01DFB3AE0C24884428C
:103DE00008D10121102000F015FB0021102000F067
:103DF00011FB2EE0BD48844208D10121202000F0B3
:103E000009FB0021202000F005FB22E0B848844295
:103E100008D10121402000F0FDFA0021402000F0EF
:103E2000F9FA16E0B348844208D10121802000F05D
:103E3000F1FA0021802000F0EDFA0AE0AE48844259
:103E400007D10121801500F0E5FA0021A01500F04E
:103E5000E1FA10BD10B50121084600F0DBFA00219F
:103E6000012000F0D7FA10BD2DE9F04102460025EF
:103E70000026002000230024002791F803C00CF046
:103E80000F0591F803C00CF0100CBCF1000F03D02B
:103E900091F802C04CEA050591F800C0BCF1000F92
:103EA00031D0146800202BE04FF0010C0CFA00F325
:103EB000B1F800C00CEA03069E4220D183004FF007
:103EC0000F0C0CFA03F7BC4305FA03FC4CEA04049C
:103ED00091F803C0BCF1280F06D14FF0010C0CFA89
:103EE00000FCC2F814C00AE091F803C0BCF1480F0E
:103EF00005D14FF0010C0CFA00FCC2F810C0401CB8
:103F00000828D1D31460B1F800C0BCF1FF0F34DD34
:103F1000546800202EE000F1080C4FF0010808FA68
:103F20000CF3B1F800C00CEA03069E4221D18300D5
:103F30004FF00F0C0CFA03F7BC4305FA03FC4CEAF4
:103F4000040491F803C0BCF1280F05D100F1080C5E
:103F500008FA0CF8C2F8148091F803C0BCF1480FBD
:103F600007D100F1080C4FF0010808FA0CF8C2F86C
:103F70001080401C0828CED35460BDE8F0814FF675
:103F8000FF710180022181700421C17070470246D7
:103F9000002093680B400BB1012000E00020704727
:103FA0000146886880B2704702460020D3680B4003
:103FB0000BB1012000E0002070470146C86880B2C4
:103FC000704701617047416170470AB1016100E0CB
:103FD00041617047C16070474FF480320A4382618B
:103FE0008161826182698269704702460020434B89
:103FF00018684FF68073184040EA021008433F4BA0
:10400000186070473E49C8617047F0B50A46002302
:1040100000240021002500F00046B6F1004F02D137
:10402000364EF16901E0354E7168C0F3034583B245
:1040300000F44016B6F5401F08D121F070612F4EF4
:10404000766826F070662D4F7E6012E000F48016D0
:10405000B6F5801F06D1032606FA05F4A14341F008
:10406000706106E0460D360103FA06F6B14341F0F1
:10407000706122B1460D360103FA06F6314300F0B5
:104080000046B6F1004F02D11C4EF16101E01B4E1B
:104090007160F0BD30B500228B071C0F0F2303FAAF
:1040A00004F2164B08338C1053F824309343134C0E
:1040B00008348D1044F8253023468C1053F82430F2
:1040C0008C07240F00FA04F423430C4C08348D10A1
:1040D00044F8253030BD0A49DC31086070470000E3
:1040E00000080140000C0140001001400014014094
:1040F00000180140001C0140002001400000014068
:1041000000002042DF48006840F00100DD490860FF
:1041100008464068DC490840DA49486008460068BB
:10412000DA490840D74908600846006820F4802032
:1041300008600846406820F4FE0048604FF41F0005
:1041400088607047CF49096821F48031CD4A1160F9
:104150001146096821F480211160B0F5803F03D039
:10416000B0F5802F0ED106E0C649096841F48031D0
:10417000C44A116007E0C349096841F4A021C14A5B
:10418000116000E000BF00BF704710B5014600227B
:10419000002300204A11012A02D1BA4C236806E00C
:1041A000022A02D1B74C236A01E0B64C636A01F0DF
:1041B0001F02012494401C400CB1012000E00020AB
:1041C00010BD38B5002000900024002500BF31202C
:1041D000FFF7DBFF05460098401C00900098B0F503
:1041E000A06F01D0002DF2D03120FFF7CEFF08B133
:1041F000012400E00024204638BD01460020A14AE9
:10420000106820F0F80040EAC10010607047A04933
:1042100008607047024600209A4B586820F47C10D2
:1042200042EA01031843974B586070479849086663
:10423000704701460020934A506820F0030008436D
:10424000506070478F48406800F00C00704701468E
:1042500000208C4A506820F0F000084350607047FE
:1042600001460020874A506820F4E060084350600F
:10427000704701460020834A506820F4605040EAAD
:10428000C1005060704729B17E4A527A02437D4B8B
:104290005A7204E07B4A527A82437A4B5A727047D0
:1042A0007B49D8310860704701460020754A506844
:1042B00020F440400843506070470021714A20328A
:1042C0001170704A82F82010012802D004280AD107
:1042D00004E001216B4A2032117005E00521694A92
:1042E0002032117000E000BF00BF704769490860CC
:1042F00070476449096A0143624A1162704765491F
:1043000044390860704730B50021002200240023A2
:104310005C4D6D6805F00C0121B1042905D0082918
:1043200023D105E05C4D056022E05B4D05601FE098
:10433000544D6D6805F47012524D6D6805F480346B
:10434000022505EB92421CB9544D554305600BE024
:104350004C4D6D6805F400351DB1504D5543056059
:1043600002E04D4D5543056002E04B4D056000BF36
:1043700000BF444D6D6805F0F0010909484D6B5CC4
:104380000568DD4045603F4D6D6805F4E061090A50
:10439000434D6B5C4568DD4085603A4D6D6805F4C2
:1043A0006051C90A3E4D6B5C4568DD40C560354DC6
:1043B0006D6805F44041890B3A4D6B5CC568B5FBEF
:1043C000F3F5056130BD29B12E4A526902432D4BE8
:1043D0005A6104E02B4A526982432A4B5A61704762
:1043E00029B1284A92690243264B9A6104E0254A82
:1043F00092698243234B9A61704729B1214AD2695D
:104400000243204BDA6104E01E4AD26982431D4B0D
:10441000DA61704729B11B4AD2680243194BDA604E
:1044200004E0184AD2688243164BDA60704729B11B
:10443000144A12690243134B1A6104E0114A1269CB
:104440008243104B1A617047124940390860704727
:104450000F49C86470470B49C87170470948406AE2
:1044600040F0807007494862704701460020054AC5
:1044700092680A400AB1012000E00020704701491B
:1044800088727047001002400000FFF8FFFFF6FE40
:10449000000042428004424200127A0000093D00BE
:1044A000550000206500002010B50446FE488442F7
:1044B00008D10121C014FFF7ADFF0021E014FFF780
:1044C000A9FFC4E0B4F1804F08D101210846FFF7ED
:1044D000AEFF00210120FFF7AAFFB8E0F3488442B5
:1044E00008D101210220FFF7A2FF00210220FFF7DF
:1044F0009EFFACE0EE48844208D101210420FFF782
:1045000096FF00210420FFF792FFA0E0E9488442D3
:1045100008D101210820FFF78AFF00210820FFF7BA
:1045200086FF94E0E448844208D101211020FFF77F
:104530007EFF00211020FFF77AFF88E0DF488442E9
:1045400008D101212020FFF772FF00212020FFF772
:104550006EFF7CE0DA48844208D101214014FFF765
:1045600059FF00216014FFF755FF70E0D5488442E1
:1045700009D10121C804FFF74DFF00214FF40020AD
:10458000FFF748FF63E0D048844209D101210805C4
:10459000FFF740FF00214FF48010FFF73BFF56E08C
:1045A000CA48844209D101214805FFF733FF0021A1
:1045B0004FF40010FFF72EFF49E0C548844208D1B0
:1045C00001214020FFF733FF00214020FFF72FFF9C
:1045D0003DE0C048844208D101218020FFF727FF39
:1045E00000218020FFF723FF31E0BB48844208D13F
:1045F00001218015FFF71BFF0021A015FFF717FF12
:1046000025E0B648844209D101210804FFF702FFE2
:1046100000214FF48030FFF7FDFE18E0B0488442DF
:1046200009D101214804FFF7F5FE00214FF40030C5
:10463000FFF7F0FE0BE0AB48844208D1012188046B
:10464000FFF7E8FE00214FF48020FFF7E3FE10BDE6
:1046500000220288944B98420ED0994B98420BD07E
:10466000B0F1804F08D0914B984205D0904B9842C2
:1046700002D0904B984204D14FF68F731A404B886A
:104680001A438D4B984207D08C4B984204D04FF67A
:10469000FF431A40CB881A4302808B8883850B889E
:1046A0000385814B98420BD0854B984208D08B4BA9
:1046B000984205D08A4B984202D08A4B984201D149
:1046C0000B7A038601238382704770B50024002291
:1046D0000023058C4FF6FE7635400584028C8388D6
:1046E000048B4FF68F752C40B51E2C400D882C4343
:1046F000751E2A400D892A434D882A436A4DA842D7
:104700000BD06F4DA84208D0744DA84205D0744D0F
:10471000A84202D0734DA84213D14FF6F7752A4034
:104720004D892A434FF6FB752A408D882A434FF660
:10473000FF652B404FF6FF552B408D892B43CD89CC
:104740002B4383800483CD888586028470BD70B539
:10475000002400220023058C4FF6EF7635400584B7
:10476000028C8388048B48F6FF752C404FF6FF457A
:104770002C400D884FF6FF7606EA05252C434FF6B0
:10478000DF752A400D8906EA05152A434D8806EA99
:1047900005152A43444DA84202D0494DA8421DD1D7
:1047A0004FF67F752A404D894FF6FF7606EA0515CC
:1047B0002A434FF6BF752A408D8806EA05152A431D
:1047C0004FF6FF352B404FF2FF752B408D8906EADF
:1047D00085052B43CD8906EA85052B438380048319
:1047E000CD880587028470BD70B5002400220023A7
:1047F000058C4FF6FF6635400584028C8388848BD8
:104800004FF68F752C404FF6FC752C400D882C43CD
:104810004FF6FF552A400D894FF6FF7606EA05252B
:104820002A434D8806EA05252A431F4DA84202D097
:10483000234DA8421DD14FF2FF752A404D894FF6F6
:10484000FF7606EA05252A434FF6FF352A408D8874
:1048500006EA05252A434EF6FF752B404DF6FF75F7
:104860002B408D8906EA05152B43CD8906EA0515EF
:104870002B4383808483CD888587028470BD70B587
:10488000002200230024058C4EF6FF763540058477
:10489000038C8488828B48F6FF752A404FF6FF45CB
:1048A0002A400D8820E00000002C01400004004058
:1048B00000080040000C00400010004000140040C0
:1048C00000340140004C01400050014000540140C0
:1048D00000180040001C0040002000400040014043
:1048E00000440140004801404FF6FF7606EA0525E6
:1048F0002A434DF6FF752B400D8906EA05352B43FB
:104900004D8806EA05352B43FA4DA84202D0FA4DF0
:10491000A84208D14BF6FF752C408D894FF6FF76E3
:1049200006EA85152C4384808283CD88A0F8405008
:10493000038470BD828B4FF2FF331A408283828BD7
:104940004FF6FF7303EA01231A4382837047F0B5E1
:104950000C461546002200210026078C4EF6FF7CEF
:1049600007EA0C070784828B018C4FF6FF7707EA72
:10497000043640F6FF473A404FF6FF7707EA05272F
:104980003A434FF6FF7707EA03373A43D94FB84225
:104990000ED0D94FB8420BD0B0F1804F08D0D74FCE
:1049A000B84205D0D64FB84202D0D64FB84206D151
:1049B0004DF6FF77394046F48057394305E047F616
:1049C000FF57394044F48057394382830184F0BD56
:1049D000828B4FF6F3731A408283828B0A43828361
:1049E0007047F0B50C461546002200210026078CC2
:1049F0004FF6FF6C07EA0C070784828B018C4FF699
:104A0000FF7707EA04264FF60C773A404FF6FF7718
:104A100007EA03172F433A43B64FB8420ED0B64FBA
:104A2000B8420BD0B0F1804F08D0B44FB84205D097
:104A3000B34FB84202D0B34FB84206D14FF6FF573A
:104A4000394046F48077394305E04FF2FF5739404B
:104A500044F48077394382830184F0BD028B4FF2A6
:104A6000FF331A400283028B4FF6FF7303EA0123E0
:104A70001A4302837047F0B50C4615460022002108
:104A80000026078C4FF6EF7C07EA0C070784028BA1
:104A9000018C4FF6FF7707EA041640F6FF473A40CD
:104AA0004FF6FF7707EA03373A434FF6FF7707EAF7
:104AB00005273A438F4FB8420ED08F4FB8420BD0E4
:104AC000B0F1804F08D08D4FB84205D08C4FB8421E
:104AD00002D08C4FB84206D14FF6DF77394046F00E
:104AE0001007394305E04FF65F77394044F010076F
:104AF000394302830184F0BD028B4FF6F3731A40F1
:104B00000283028B0A4302837047F0B50C461546B8
:104B100000220021068C4FF6FE773E400684028B71
:104B2000018C4FF60C7632407E1C06EA03162E43AB
:104B30003243704EB0420ED06F4EB0420BD0B0F147
:104B4000804F08D06D4EB04205D06D4EB04202D0BD
:104B50006C4EB04206D14FF6FD76314044F001066E
:104B6000314305E04FF6F576314044F0010631431C
:104B700002830184F0BD70B505460C465D48854250
:104B80000ED05D4885420BD0B5F1804F08D05B4810
:104B9000854205D05A48854202D05A48854200D104
:104BA00000E000BF208850B92389A2886188284688
:104BB000FFF7ABFFE1882846FFF79EFF25E020883E
:104BC00004280AD12389A28861882846FFF753FF69
:104BD000E1882846FFF742FF17E0208808280AD11D
:104BE0002389A28861882846FFF7FBFEE1882846D2
:104BF000FFF7EEFE09E02389A28861882846FFF7C7
:104C0000A6FEE1882846FFF795FE70BD2DE9F0412C
:104C100005460C4600260127608808B9022600E0F8
:104C20000026A088012801D1022700E00127208862
:104C3000A0B92389A28861882846FFF766FFE1882A
:104C40002846FFF759FF23893A4631462846FFF7A1
:104C500012FFE1882846FFF701FF13E02389A288AD
:104C600061882846FFF707FFE1882846FFF7F6FE30
:104C700023893A4631462846FFF747FFE188284610
:104C8000FFF73AFFBDE8F0810A884B881A438B880A
:104C90001A43CB881A430B891A434B891A438B89D1
:104CA0001A43A0F8442070474FF6FF71818000211D
:104CB0000180C180418001727047002101804180E4
:104CC0008180C180018141818181C1817047002142
:104CD00001804180012181800021C18001817047D4
:104CE0000021018041808180C180018141818181D9
:104CF00070470000002C01400034014000040040D7
:104D000000080040000C004021B1028842F001027E
:104D1000028004E002884FF6FE731A40028070475A
:104D200031B1B0F8442042F40042A0F8442005E03C
:104D3000B0F84420C2F30E02A0F8442070471AB124
:104D400083890B43838102E083898B43838170478E
:104D50008182704741EA0203A0F8483070471AB1D7
:104D600083890B43838102E083898B43838170476E
:104D700001894FF6F8721140018170470A460021FF
:104D800001894FF68F73194011430181704730B587
:104D900004460D4629462046FFF7F0FF208940F0E3
:104DA0000700208130BD2DE9F04104460D4616462E
:104DB0001F46602D06D13B46012231462046FFF7B3
:104DC0005AFE05E03B46012231462046FFF79DFE94
:104DD00029462046FFF7D2FF208940F007002081B6
:104DE000BDE8F08130B50C4600210189C9B24FF60B
:104DF000FF7505EA0325154325432943018130BD8D
:104E00002DE9F04105460E461746984600244346D4
:104E10003A4631462846FFF7E5FF2C894FF6F870F1
:104E2000044044F007044FF68F70044044F07004CF
:104E30002C81BDE8F081F0B504460D4616461F46AC
:104E40003B46324629462046FFF7CCFF208940F4F6
:104E500080402081F0BD0185828270470A46002192
:104E600001884FF68F731940114301807047F0B5E8
:104E70000C4615461E460021002200230189028BA4
:104E8000038C4FF6F877394021434FF6FC473A4000
:104E900040F201173A434FF6DD773B404FF6FF777C
:104EA00007EA06172F433B43018102830384F0BDC9
:104EB0000A460021018B4FF68F731940114301837D
:104EC00070470A460021018B48F6FF7319404FF6E0
:104ED000FF7303EA02231943018370470A46002146
:104EE000818B4FF68F7319401143818370470A46B7
:104EF0000021818B48F6FF7319404FF6FF7303EAD8
:104F0000022319438183704721B1028842F0800255
:104F1000028004E002884FF67F731A4002807047D7
:104F200021B1828842F00402828004E082884FF638
:104F3000FB731A408280704721B1828842F00802D8
:104F4000828004E082884FF6F7731A4082807047AF
:104F500021B1828842F00102828004E082884FF60B
:104F6000FE731A40828070470A460021018B4FF67B
:104F7000F77319401143018370470A460021018BE2
:104F80004FF2FF7319404FF6FF7303EA02231943F0
:104F9000018370470A460021818B4FF6F773194051
:104FA0001143818370470A460021818B4FF2FF73C2
:104FB00019404FF6FF7303EA0223194381837047B8
:104FC0000A460021018B4FF6FB7319401143018300
:104FD00070470A460021018B4FF6FF3319404FF608
:104FE000FF7303EA02231943018370470A46002135
:104FF000818B4FF6FB7319401143818370470A463A
:105000000021818B4FF6FF3319404FF6FF7303EAFF
:1050100002231943818370470A460021018B4FF612
:105020007F7319401143018370470A460021018BA9
:10503000C1F30E014FF6FF7303EA02231943018304
:1050400070470A460021818B4FF67F731940114348
:10505000818370470A460021818BC1F30E014FF610
:10506000FF7303EA02231943818370470A46002134
:10507000018C4FF6FD7319401143018470470A46B5
:105080000021018C4FF6F7731940114301847047DA
:105090000A460021018C4FF6DF7319404FF6FF736B
:1050A00003EA02131943018470470A460021018C68
:1050B0004FF67F7319404FF6FF7303EA021319434B
:1050C000018470470A460021018C4FF6FF531940B6
:1050D0004FF6FF7303EA02231943018470470A461F
:1050E0000021018C4FF2FF7319404FF6FF7303EA62
:1050F00002231943018470470A460021018C4DF6B2
:10510000FF7319404FF6FF7303EA0233194301841A
:10511000704730B5002301248C40A3B2048C9C431B
:105120000484048C02FA01F5ADB22C43048430BD32
:1051300030B5002304248C40A3B2048C9C43048427
:10514000048C02FA01F5ADB22C43048430BD70B575
:105150000346002000241846183001258D40ACB2CB
:105160001D8CA5431D8409B1082909D100EB6100FC
:10517000056825F0700505600568154305600EE0BB
:105180000D1FC5F34E052844056825F4E04505606C
:1051900005684FF6FF7606EA02263543056070BDC6
:1051A00021B1028842F00202028004E002884FF638
:1051B000FD731A400280704721B1028842F0040258
:1051C000028004E002884FF6FB731A4002807047A9
:1051D00021B1828842F08002828004E082884FF60A
:1051E0007F731A408280704702884FF6F7731A4027
:1051F000028002880A430280704782884FF68F73CC
:105200001A40828082880A438280704702894FF662
:10521000F8731A40028102890A43028170470289A9
:105220004FF67F731A40028102890A430281704758
:1052300081847047818570478186704701877047F8
:1052400081877047A0F84010704702884FF6FF43EF
:105250001A40028002880A43028070470146888E05
:1052600070470146088F70470146888F7047014696
:10527000B1F8400070470146888C70470146088DA0
:10528000704702460020138A0B400BB1012000E05A
:1052900000207047CA430282704730B502460020A2
:1052A00000230024158A05EA0103958905EA010413
:1052B00013B10CB1012000E0002030BDCA430282CE
:1052C0007047000001460020FE4A106800F03800D8
:1052D000084310607047FB49096821F00801F94A4A
:1052E000116011460968014311607047F54909686A
:1052F00021F01001F34A1160114609680143116061
:105300007047F148EF494860F04848607047EE4800
:10531000EC494860ED4848607047EA48006940F051
:105320008000E84908617047E648006940F0800065
:10533000E449086170470420E249C96801F00101AD
:1053400009B101200EE0DF49C96801F0040109B18B
:10535000022007E0DB49C96801F0100109B1032010
:1053600000E00420704700B502460423FFF7E3FF86
:10537000034603E0FFF7DFFF0346521E012B01D176
:10538000002AF7D102B90523184600BD30B50446FE
:1053900004254FF43020FFF7E6FF0546042D17D112
:1053A000C848006940F00200C649086108464461E7
:1053B000006940F0400008614FF43020FFF7D3FF50
:1053C0000546C048006941F6FD710840BD490861C5
:1053D000284630BD10B504244FF43020FFF7C3FF3A
:1053E0000446042C16D1B748006940F00400B549C2
:1053F00008610846006940F0400008614FF4302021
:10540000FFF7B1FF0446AF48006941F6FB71084061
:10541000AC490861204610BD00B502460423FFF7E1
:105420008AFF034603E0FFF786FF0346521E012B67
:1054300001D1002AF7D102B90523184600BD10B5E5
:1054400004244FF43020FFF7E7FF0446042C16D164
:105450009C48006940F004009A49086108460069C8
:1054600040F0400008614FF43020FFF7D5FF0446BC
:105470009448006941F6FB71084092490861204652
:1054800010BD00208F49C96901F0020109B1012056
:1054900000E00020704730B5A5250424FFF7F1FF98
:1054A00000B100254FF43020FFF75DFF0446042CC7
:1054B0003AD18548834988608448886008460069F5
:1054C00040F0200008610846006940F04000086193
:1054D0004FF43020FFF747FF0446042C1BD17948D6
:1054E000006941F6DF7108407649086108460069A5
:1054F00040F01000086176480580E002FFF733FFB6
:105500000446052C10D06F48006941F6EF71084041
:105510006C49086108E0052C06D06A48006941F62C
:10552000EF71084067490861204630BD78B50646EE
:105530000C46042500200090E802FFF714FF054602
:10554000042D24D15F48006940F001005D490861E5
:105550003480E802FFF707FF0546042D10D1B01C88
:105560000090200C00990880E802FFF7FCFE054639
:105570005448006941F6FE7108405249086106E04E
:105580005048006941F6FE7108404E4908612846BE
:1055900078BD70B504460D460426F002FFF7E3FE21
:1055A0000646042E11D14748006940F001004549E4
:1055B00008612580F002FFF7D6FE064641480069E3
:1055C00041F6FE7108403F490861304670BD70B534
:1055D00005460E460424E002FFF7C5FE0446042CEF
:1055E00017D13948374988603848886008460069CB
:1055F00040F0100008612E80E002FFF7B4FE044680
:10560000052C06D02F48006941F6EF7108402D495E
:105610000861204670BD2DE9F04304464FF6FF7641
:105620003746B046B1460425E443E6B2C4F3072743
:10563000C4F307484FEA1469E802FFF794FE0546F1
:10564000042D49D120481F498860204888600846B9
:10565000006940F010000861FF2E06D01C48083099
:105660000680E802FFF77FFE0546042D08D1FF2FD4
:1056700006D017480A300780E802FFF774FE054697
:10568000042D0AD1B8F1FF0F07D011480C30A0F853
:105690000080E802FFF767FE0546042D0AD1B9F144
:1056A000FF0F07D00A480E30A0F80090E802FFF77D
:1056B0005AFE0546052D0FD00248006941F6EF71EC
:1056C000084007E00020024023016745AB89EFCD89
:1056D00000F8FF1F664908612846BDE8F08330B531
:1056E000054604244FF43020FFF73DFE0446042C09
:1056F00041D160485E4988605F488860084600691B
:1057000040F0200008610846006940F04000086150
:105710004FF43020FFF727FE0446042C22D15448D2
:10572000006941F6DF710840514908610846006987
:1057300040F0100008611DB100205049088002E0CF
:10574000A5204E4908804FF43020FFF70CFE044698
:10575000052C10D04648006941F6EF7108404449D5
:10576000086108E0052C06D04148006941F6DF7168
:1057700008403F490861204630BDF0B505460E4659
:10578000174604243B483A4988603B488860E00259
:10579000FFF7E9FD0446042C19D13548006940F0B3
:1057A00010003349086147F0F8003043284333497B
:1057B000891C0880E002FFF7D6FD0446052C06D0C0
:1057C0002B48006941F6EF710840294908612046DD
:1057D000F0BD2748C069800870472548006A7047B7
:1057E00000202349096801F0200109B1012000E0EF
:1057F0000020704729B11E4A126902431C4B1A61EE
:1058000004E01B4A12698243194B1A617047014632
:105810000020012908D1164AD26902F001020AB11A
:10582000012008E0002006E0114AD2680A400AB1CF
:10583000012000E0002070470D49C8607047042037
:105840000B49C96801F0010109B101200EE00849C6
:10585000C96801F0040109B1022007E00449C968E0
:1058600001F0100109B1032000E00420704700009E
:105870000020024023016745AB89EFCD00F8FF1FF0
:105880000CB50020019000906C48006840F4803016
:105890006A49086000BF6948006800F40030009061
:1058A0000198401C0190009818B90198B0F5A06FBC
:1058B000F1D16248006800F4003010B1012000907E
:1058C00001E0002000900098012843D15C48006866
:1058D00040F010005A4908600846006820F00300B4
:1058E00008600846006840F00200086053484068BD
:1058F000524948600846406848600846406840F49D
:10590000806048600846406820F47C104860084683
:10591000406840F4E81048600846006840F0807035
:10592000086000BF4548006800F000700028F9D00A
:105930004248406820F003004049486008464068FB
:1059400040F00200486000BF3C48406800F00C0096
:105950000828F9D10CBD10B5FFF792FF10BD10B5A6
:105960003648006840F00100344908600846406845
:1059700034490840314948600846006832490840C7
:105980002E4908600846006820F480200860084618
:10599000406820F4FE0048604FF41F008860FFF765
:1059A000DAFF4FF000602949086010BD10B50021F2
:1059B00000200022214B5B6803F00C0121B1042977
:1059C00006D0082928D107E0214B224C236027E08C
:1059D0001F4B204C236023E0184B5B6803F47010CE
:1059E000164B5B6803F48032022303EB904022B92C
:1059F000194B4343174C23600DE0104B5B6803F4D5
:105A0000003323B1144B4343124C236003E0104B8B
:105A10004343104C236003E00D4B0E4C236000BF4A
:105A200000BF064B5B68C3F303130C4CE15C094BEE
:105A30001B68CB40074C236010BD000000100240E3
:105A4000002002400000FFF8FFFFF6FE08ED00E036
:105A500000127A006C00002000093D007000002058
:105A60000948804709480047FEE7FEE7FEE7FEE7F2
:105A7000FEE7FEE7FEE7FEE7FEE7FEE7044805492E
:105A8000054A064B704700005F590008ED0000080A
:105A9000C8040020C80A0020C8060020C80600204C
:105AA00010B50446BE48844208D101218014FEF797
:105AB000B1FC0021A014FEF7ADFC16E0B948844209
:105AC00008D101210014FEF7B2FC00212014FEF7DA
:105AD000AEFC0AE0B448844207D10121C013FEF7AE
